{
  "_format": "hh-sol-artifact-1",
  "contractName": "AstralNexusExchange",
  "sourceName": "contracts/AstraNexus.sol",
  "abi": [
    {
      "inputs": [
        {
          "internalType": "address",
          "name": "_gameToken",
          "type": "address"
        },
        {
          "internalType": "address",
          "name": "_eduToken",
          "type": "address"
        },
        {
          "internalType": "uint256",
          "name": "_rateGameToEdu",
          "type": "uint256"
        },
        {
          "internalType": "uint256",
          "name": "_rateEduToGame",
          "type": "uint256"
        }
      ],
      "stateMutability": "nonpayable",
      "type": "constructor"
    },
    {
      "anonymous": false,
      "inputs": [
        {
          "indexed": false,
          "internalType": "address",
          "name": "account",
          "type": "address"
        }
      ],
      "name": "Paused",
      "type": "event"
    },
    {
      "anonymous": false,
      "inputs": [
        {
          "indexed": false,
          "internalType": "uint256",
          "name": "newRateGameToEdu",
          "type": "uint256"
        },
        {
          "indexed": false,
          "internalType": "uint256",
          "name": "newRateEduToGame",
          "type": "uint256"
        }
      ],
      "name": "RatesUpdated",
      "type": "event"
    },
    {
      "anonymous": false,
      "inputs": [
        {
          "indexed": true,
          "internalType": "bytes32",
          "name": "role",
          "type": "bytes32"
        },
        {
          "indexed": true,
          "internalType": "bytes32",
          "name": "previousAdminRole",
          "type": "bytes32"
        },
        {
          "indexed": true,
          "internalType": "bytes32",
          "name": "newAdminRole",
          "type": "bytes32"
        }
      ],
      "name": "RoleAdminChanged",
      "type": "event"
    },
    {
      "anonymous": false,
      "inputs": [
        {
          "indexed": true,
          "internalType": "bytes32",
          "name": "role",
          "type": "bytes32"
        },
        {
          "indexed": true,
          "internalType": "address",
          "name": "account",
          "type": "address"
        },
        {
          "indexed": true,
          "internalType": "address",
          "name": "sender",
          "type": "address"
        }
      ],
      "name": "RoleGranted",
      "type": "event"
    },
    {
      "anonymous": false,
      "inputs": [
        {
          "indexed": true,
          "internalType": "bytes32",
          "name": "role",
          "type": "bytes32"
        },
        {
          "indexed": true,
          "internalType": "address",
          "name": "account",
          "type": "address"
        },
        {
          "indexed": true,
          "internalType": "address",
          "name": "sender",
          "type": "address"
        }
      ],
      "name": "RoleRevoked",
      "type": "event"
    },
    {
      "anonymous": false,
      "inputs": [
        {
          "indexed": true,
          "internalType": "address",
          "name": "user",
          "type": "address"
        },
        {
          "indexed": false,
          "internalType": "uint256",
          "name": "amountIn",
          "type": "uint256"
        },
        {
          "indexed": false,
          "internalType": "uint256",
          "name": "amountOut",
          "type": "uint256"
        },
        {
          "indexed": false,
          "internalType": "bool",
          "name": "isGameToEdu",
          "type": "bool"
        }
      ],
      "name": "TokensSwapped",
      "type": "event"
    },
    {
      "anonymous": false,
      "inputs": [
        {
          "indexed": false,
          "internalType": "address",
          "name": "account",
          "type": "address"
        }
      ],
      "name": "Unpaused",
      "type": "event"
    },
    {
      "inputs": [],
      "name": "DEFAULT_ADMIN_ROLE",
      "outputs": [
        {
          "internalType": "bytes32",
          "name": "",
          "type": "bytes32"
        }
      ],
      "stateMutability": "view",
      "type": "function"
    },
    {
      "inputs": [],
      "name": "RATE_MANAGER_ROLE",
      "outputs": [
        {
          "internalType": "bytes32",
          "name": "",
          "type": "bytes32"
        }
      ],
      "stateMutability": "view",
      "type": "function"
    },
    {
      "inputs": [],
      "name": "RATE_PRECISION",
      "outputs": [
        {
          "internalType": "uint256",
          "name": "",
          "type": "uint256"
        }
      ],
      "stateMutability": "view",
      "type": "function"
    },
    {
      "inputs": [
        {
          "internalType": "uint256",
          "name": "eduAmount",
          "type": "uint256"
        }
      ],
      "name": "convertEduToGame",
      "outputs": [],
      "stateMutability": "nonpayable",
      "type": "function"
    },
    {
      "inputs": [
        {
          "internalType": "uint256",
          "name": "gameAmount",
          "type": "uint256"
        }
      ],
      "name": "convertGameToEdu",
      "outputs": [],
      "stateMutability": "nonpayable",
      "type": "function"
    },
    {
      "inputs": [],
      "name": "eduToken",
      "outputs": [
        {
          "internalType": "contract IERC20",
          "name": "",
          "type": "address"
        }
      ],
      "stateMutability": "view",
      "type": "function"
    },
    {
      "inputs": [],
      "name": "gameToken",
      "outputs": [
        {
          "internalType": "contract IERC20",
          "name": "",
          "type": "address"
        }
      ],
      "stateMutability": "view",
      "type": "function"
    },
    {
      "inputs": [
        {
          "internalType": "bytes32",
          "name": "role",
          "type": "bytes32"
        }
      ],
      "name": "getRoleAdmin",
      "outputs": [
        {
          "internalType": "bytes32",
          "name": "",
          "type": "bytes32"
        }
      ],
      "stateMutability": "view",
      "type": "function"
    },
    {
      "inputs": [
        {
          "internalType": "bytes32",
          "name": "role",
          "type": "bytes32"
        },
        {
          "internalType": "address",
          "name": "account",
          "type": "address"
        }
      ],
      "name": "grantRole",
      "outputs": [],
      "stateMutability": "nonpayable",
      "type": "function"
    },
    {
      "inputs": [
        {
          "internalType": "bytes32",
          "name": "role",
          "type": "bytes32"
        },
        {
          "internalType": "address",
          "name": "account",
          "type": "address"
        }
      ],
      "name": "hasRole",
      "outputs": [
        {
          "internalType": "bool",
          "name": "",
          "type": "bool"
        }
      ],
      "stateMutability": "view",
      "type": "function"
    },
    {
      "inputs": [],
      "name": "pause",
      "outputs": [],
      "stateMutability": "nonpayable",
      "type": "function"
    },
    {
      "inputs": [],
      "name": "paused",
      "outputs": [
        {
          "internalType": "bool",
          "name": "",
          "type": "bool"
        }
      ],
      "stateMutability": "view",
      "type": "function"
    },
    {
      "inputs": [],
      "name": "rateEduToGame",
      "outputs": [
        {
          "internalType": "uint256",
          "name": "",
          "type": "uint256"
        }
      ],
      "stateMutability": "view",
      "type": "function"
    },
    {
      "inputs": [],
      "name": "rateGameToEdu",
      "outputs": [
        {
          "internalType": "uint256",
          "name": "",
          "type": "uint256"
        }
      ],
      "stateMutability": "view",
      "type": "function"
    },
    {
      "inputs": [
        {
          "internalType": "bytes32",
          "name": "role",
          "type": "bytes32"
        },
        {
          "internalType": "address",
          "name": "account",
          "type": "address"
        }
      ],
      "name": "renounceRole",
      "outputs": [],
      "stateMutability": "nonpayable",
      "type": "function"
    },
    {
      "inputs": [
        {
          "internalType": "bytes32",
          "name": "role",
          "type": "bytes32"
        },
        {
          "internalType": "address",
          "name": "account",
          "type": "address"
        }
      ],
      "name": "revokeRole",
      "outputs": [],
      "stateMutability": "nonpayable",
      "type": "function"
    },
    {
      "inputs": [
        {
          "internalType": "bytes4",
          "name": "interfaceId",
          "type": "bytes4"
        }
      ],
      "name": "supportsInterface",
      "outputs": [
        {
          "internalType": "bool",
          "name": "",
          "type": "bool"
        }
      ],
      "stateMutability": "view",
      "type": "function"
    },
    {
      "inputs": [],
      "name": "unpause",
      "outputs": [],
      "stateMutability": "nonpayable",
      "type": "function"
    },
    {
      "inputs": [
        {
          "internalType": "uint256",
          "name": "_rateGameToEdu",
          "type": "uint256"
        },
        {
          "internalType": "uint256",
          "name": "_rateEduToGame",
          "type": "uint256"
        }
      ],
      "name": "updateRates",
      "outputs": [],
      "stateMutability": "nonpayable",
      "type": "function"
    },
    {
      "inputs": [
        {
          "internalType": "address",
          "name": "token",
          "type": "address"
        },
        {
          "internalType": "uint256",
          "name": "amount",
          "type": "uint256"
        }
      ],
      "name": "withdrawTokens",
      "outputs": [],
      "stateMutability": "nonpayable",
      "type": "function"
    }
  ],
  "bytecode": "0x60c06040523480156200001157600080fd5b5060405162002b9338038062002b9383398181016040528101906200003791906200043e565b600180819055506000600260006101000a81548160ff021916908315150217905550600073ffffffffffffffffffffffffffffffffffffffff168473ffffffffffffffffffffffffffffffffffffffff1614158015620000c45750600073ffffffffffffffffffffffffffffffffffffffff168373ffffffffffffffffffffffffffffffffffffffff1614155b62000106576040517f08c379a0000000000000000000000000000000000000000000000000000000008152600401620000fd9062000511565b60405180910390fd5b600082118015620001175750600081115b62000159576040517f08c379a0000000000000000000000000000000000000000000000000000000008152600401620001509062000583565b60405180910390fd5b8373ffffffffffffffffffffffffffffffffffffffff1660808173ffffffffffffffffffffffffffffffffffffffff16815250508273ffffffffffffffffffffffffffffffffffffffff1660a08173ffffffffffffffffffffffffffffffffffffffff16815250508160038190555080600481905550620001e46000801b336200022060201b60201c565b620002167f9f29eee2263c2102949fd3febafb3dd6dbbaee114f48a474222b2159942eb2b2336200022060201b60201c565b50505050620005a5565b6200023282826200023660201b60201c565b5050565b6200024882826200032760201b60201c565b6200032357600160008084815260200190815260200160002060000160008373ffffffffffffffffffffffffffffffffffffffff1673ffffffffffffffffffffffffffffffffffffffff16815260200190815260200160002060006101000a81548160ff021916908315150217905550620002c86200039160201b60201c565b73ffffffffffffffffffffffffffffffffffffffff168173ffffffffffffffffffffffffffffffffffffffff16837f2f8788117e7eff1d82e926ec794901d17c78024a50270940304540a733656f0d60405160405180910390a45b5050565b600080600084815260200190815260200160002060000160008373ffffffffffffffffffffffffffffffffffffffff1673ffffffffffffffffffffffffffffffffffffffff16815260200190815260200160002060009054906101000a900460ff16905092915050565b600033905090565b600080fd5b600073ffffffffffffffffffffffffffffffffffffffff82169050919050565b6000620003cb826200039e565b9050919050565b620003dd81620003be565b8114620003e957600080fd5b50565b600081519050620003fd81620003d2565b92915050565b6000819050919050565b620004188162000403565b81146200042457600080fd5b50565b60008151905062000438816200040d565b92915050565b600080600080608085870312156200045b576200045a62000399565b5b60006200046b87828801620003ec565b94505060206200047e87828801620003ec565b9350506040620004918782880162000427565b9250506060620004a48782880162000427565b91505092959194509250565b600082825260208201905092915050565b7f5a65726f20616464726573730000000000000000000000000000000000000000600082015250565b6000620004f9600c83620004b0565b91506200050682620004c1565b602082019050919050565b600060208201905081810360008301526200052c81620004ea565b9050919050565b7f496e76616c696420726174657300000000000000000000000000000000000000600082015250565b60006200056b600d83620004b0565b9150620005788262000533565b602082019050919050565b600060208201905081810360008301526200059e816200055c565b9050919050565b60805160a051612590620006036000396000818161046d0152818161075c01528181610b3d01528181610d020152610e5c0152600081816104180152818161067b0152818161084001528181610c1e0152610ef701526125906000f3fe608060405234801561001057600080fd5b506004361061012c5760003560e01c806380bceb4f116100ad578063b30b450511610071578063b30b4505146102f7578063c3dfdae614610315578063cb327b8b14610333578063d547741f14610351578063f14693821461036d5761012c565b806380bceb4f146102655780638456cb59146102815780638d8788891461028b57806391d14854146102a9578063a217fddf146102d95761012c565b80632b3ba681116100f45780632b3ba681146101e75780632f2ff15d1461020557806336568abe146102215780633f4ba83a1461023d5780635c975abb146102475761012c565b806301ffc9a71461013157806304adbed71461016157806306b091f91461017f5780631c96b4fe1461019b578063248a9ca3146101b7575b600080fd5b61014b60048036038101906101469190611766565b610389565b60405161015891906117ae565b60405180910390f35b610169610403565b60405161017691906117e2565b60405180910390f35b61019960048036038101906101949190611887565b610409565b005b6101b560048036038101906101b091906118c7565b6105bc565b005b6101d160048036038101906101cc919061192a565b610980565b6040516101de9190611966565b60405180910390f35b6101ef61099f565b6040516101fc91906117e2565b60405180910390f35b61021f600480360381019061021a9190611981565b6109ab565b005b61023b60048036038101906102369190611981565b6109cc565b005b610245610a4f565b005b61024f610a67565b60405161025c91906117ae565b60405180910390f35b61027f600480360381019061027a91906118c7565b610a7e565b005b610289610e42565b005b610293610e5a565b6040516102a09190611a20565b60405180910390f35b6102c360048036038101906102be9190611981565b610e7e565b6040516102d091906117ae565b60405180910390f35b6102e1610ee8565b6040516102ee9190611966565b60405180910390f35b6102ff610eef565b60405161030c91906117e2565b60405180910390f35b61031d610ef5565b60405161032a9190611a20565b60405180910390f35b61033b610f19565b6040516103489190611966565b60405180910390f35b61036b60048036038101906103669190611981565b610f3d565b005b61038760048036038101906103829190611a3b565b610f5e565b005b60007f7965db0b000000000000000000000000000000000000000000000000000000007bffffffffffffffffffffffffffffffffffffffffffffffffffffffff1916827bffffffffffffffffffffffffffffffffffffffffffffffffffffffff191614806103fc57506103fb82611023565b5b9050919050565b60045481565b6000801b6104168161108d565b7f000000000000000000000000000000000000000000000000000000000000000073ffffffffffffffffffffffffffffffffffffffff168373ffffffffffffffffffffffffffffffffffffffff1614806104bb57507f000000000000000000000000000000000000000000000000000000000000000073ffffffffffffffffffffffffffffffffffffffff168373ffffffffffffffffffffffffffffffffffffffff16145b6104fa576040517f08c379a00000000000000000000000000000000000000000000000000000000081526004016104f190611ad8565b60405180910390fd5b8273ffffffffffffffffffffffffffffffffffffffff1663a9059cbb33846040518363ffffffff1660e01b8152600401610535929190611b07565b6020604051808303816000875af1158015610554573d6000803e3d6000fd5b505050506040513d601f19601f820116820180604052508101906105789190611b5c565b6105b7576040517f08c379a00000000000000000000000000000000000000000000000000000000081526004016105ae90611bd5565b60405180910390fd5b505050565b6105c46110a1565b6105cc6110f0565b6000811161060f576040517f08c379a000000000000000000000000000000000000000000000000000000000815260040161060690611c41565b60405180910390fd5b6000670de0b6b3a7640000600454836106289190611c90565b6106329190611d01565b905060008111610677576040517f08c379a000000000000000000000000000000000000000000000000000000000815260040161066e90611d7e565b60405180910390fd5b60007f000000000000000000000000000000000000000000000000000000000000000073ffffffffffffffffffffffffffffffffffffffff166370a08231306040518263ffffffff1660e01b81526004016106d29190611d9e565b602060405180830381865afa1580156106ef573d6000803e3d6000fd5b505050506040513d601f19601f820116820180604052508101906107139190611dce565b905081811015610758576040517f08c379a000000000000000000000000000000000000000000000000000000000815260040161074f90611e47565b60405180910390fd5b60007f000000000000000000000000000000000000000000000000000000000000000073ffffffffffffffffffffffffffffffffffffffff166323b872dd3330876040518463ffffffff1660e01b81526004016107b793929190611e67565b6020604051808303816000875af11580156107d6573d6000803e3d6000fd5b505050506040513d601f19601f820116820180604052508101906107fa9190611b5c565b90508061083c576040517f08c379a000000000000000000000000000000000000000000000000000000000815260040161083390611eea565b60405180910390fd5b60007f000000000000000000000000000000000000000000000000000000000000000073ffffffffffffffffffffffffffffffffffffffff1663a9059cbb33866040518363ffffffff1660e01b8152600401610899929190611b07565b6020604051808303816000875af11580156108b8573d6000803e3d6000fd5b505050506040513d601f19601f820116820180604052508101906108dc9190611b5c565b90508061091e576040517f08c379a000000000000000000000000000000000000000000000000000000000815260040161091590611f56565b60405180910390fd5b3373ffffffffffffffffffffffffffffffffffffffff167f84fcc71cbb01eb19e9de1a24dbb9258b44765449e460f408b9f5f4252a898a5a8686600060405161096993929190611f76565b60405180910390a25050505061097d61113a565b50565b6000806000838152602001908152602001600020600101549050919050565b670de0b6b3a764000081565b6109b482610980565b6109bd8161108d565b6109c78383611143565b505050565b6109d4611223565b73ffffffffffffffffffffffffffffffffffffffff168173ffffffffffffffffffffffffffffffffffffffff1614610a41576040517f08c379a0000000000000000000000000000000000000000000000000000000008152600401610a389061201f565b60405180910390fd5b610a4b828261122b565b5050565b6000801b610a5c8161108d565b610a6461130c565b50565b6000600260009054906101000a900460ff16905090565b610a866110a1565b610a8e6110f0565b60008111610ad1576040517f08c379a0000000000000000000000000000000000000000000000000000000008152600401610ac890611c41565b60405180910390fd5b6000670de0b6b3a764000060035483610aea9190611c90565b610af49190611d01565b905060008111610b39576040517f08c379a0000000000000000000000000000000000000000000000000000000008152600401610b3090611d7e565b60405180910390fd5b60007f000000000000000000000000000000000000000000000000000000000000000073ffffffffffffffffffffffffffffffffffffffff166370a08231306040518263ffffffff1660e01b8152600401610b949190611d9e565b602060405180830381865afa158015610bb1573d6000803e3d6000fd5b505050506040513d601f19601f82011682018060405250810190610bd59190611dce565b905081811015610c1a576040517f08c379a0000000000000000000000000000000000000000000000000000000008152600401610c119061208b565b60405180910390fd5b60007f000000000000000000000000000000000000000000000000000000000000000073ffffffffffffffffffffffffffffffffffffffff166323b872dd3330876040518463ffffffff1660e01b8152600401610c7993929190611e67565b6020604051808303816000875af1158015610c98573d6000803e3d6000fd5b505050506040513d601f19601f82011682018060405250810190610cbc9190611b5c565b905080610cfe576040517f08c379a0000000000000000000000000000000000000000000000000000000008152600401610cf590611f56565b60405180910390fd5b60007f000000000000000000000000000000000000000000000000000000000000000073ffffffffffffffffffffffffffffffffffffffff1663a9059cbb33866040518363ffffffff1660e01b8152600401610d5b929190611b07565b6020604051808303816000875af1158015610d7a573d6000803e3d6000fd5b505050506040513d601f19601f82011682018060405250810190610d9e9190611b5c565b905080610de0576040517f08c379a0000000000000000000000000000000000000000000000000000000008152600401610dd790611eea565b60405180910390fd5b3373ffffffffffffffffffffffffffffffffffffffff167f84fcc71cbb01eb19e9de1a24dbb9258b44765449e460f408b9f5f4252a898a5a86866001604051610e2b93929190611f76565b60405180910390a250505050610e3f61113a565b50565b6000801b610e4f8161108d565b610e5761136f565b50565b7f000000000000000000000000000000000000000000000000000000000000000081565b600080600084815260200190815260200160002060000160008373ffffffffffffffffffffffffffffffffffffffff1673ffffffffffffffffffffffffffffffffffffffff16815260200190815260200160002060009054906101000a900460ff16905092915050565b6000801b81565b60035481565b7f000000000000000000000000000000000000000000000000000000000000000081565b7f9f29eee2263c2102949fd3febafb3dd6dbbaee114f48a474222b2159942eb2b281565b610f4682610980565b610f4f8161108d565b610f59838361122b565b505050565b7f9f29eee2263c2102949fd3febafb3dd6dbbaee114f48a474222b2159942eb2b2610f888161108d565b600083118015610f985750600082115b610fd7576040517f08c379a0000000000000000000000000000000000000000000000000000000008152600401610fce906120f7565b60405180910390fd5b82600381905550816004819055507f0cf6ce3db485f79e960e63b1550af071fe0c99c09834149273e0fa8b32018ff88383604051611016929190612117565b60405180910390a1505050565b60007f01ffc9a7000000000000000000000000000000000000000000000000000000007bffffffffffffffffffffffffffffffffffffffffffffffffffffffff1916827bffffffffffffffffffffffffffffffffffffffffffffffffffffffff1916149050919050565b61109e81611099611223565b6113d2565b50565b6002600154036110e6576040517f08c379a00000000000000000000000000000000000000000000000000000000081526004016110dd9061218c565b60405180910390fd5b6002600181905550565b6110f8610a67565b15611138576040517f08c379a000000000000000000000000000000000000000000000000000000000815260040161112f906121f8565b60405180910390fd5b565b60018081905550565b61114d8282610e7e565b61121f57600160008084815260200190815260200160002060000160008373ffffffffffffffffffffffffffffffffffffffff1673ffffffffffffffffffffffffffffffffffffffff16815260200190815260200160002060006101000a81548160ff0219169083151502179055506111c4611223565b73ffffffffffffffffffffffffffffffffffffffff168173ffffffffffffffffffffffffffffffffffffffff16837f2f8788117e7eff1d82e926ec794901d17c78024a50270940304540a733656f0d60405160405180910390a45b5050565b600033905090565b6112358282610e7e565b1561130857600080600084815260200190815260200160002060000160008373ffffffffffffffffffffffffffffffffffffffff1673ffffffffffffffffffffffffffffffffffffffff16815260200190815260200160002060006101000a81548160ff0219169083151502179055506112ad611223565b73ffffffffffffffffffffffffffffffffffffffff168173ffffffffffffffffffffffffffffffffffffffff16837ff6391f5c32d9c69d2a47ea670b442974b53935d1edc7fd64eb21e047a839171b60405160405180910390a45b5050565b611314611457565b6000600260006101000a81548160ff0219169083151502179055507f5db9ee0a495bf2e6ff9c91a7834c1ba4fdd244a5e8aa4e537bd38aeae4b073aa611358611223565b6040516113659190611d9e565b60405180910390a1565b6113776110f0565b6001600260006101000a81548160ff0219169083151502179055507f62e78cea01bee320cd4e420270b5ea74000d11b0c9f74754ebdbfc544b05a2586113bb611223565b6040516113c89190611d9e565b60405180910390a1565b6113dc8282610e7e565b611453576113e9816114a0565b6113f78360001c60206114cd565b604051602001611408929190612321565b6040516020818303038152906040526040517f08c379a000000000000000000000000000000000000000000000000000000000815260040161144a91906123a5565b60405180910390fd5b5050565b61145f610a67565b61149e576040517f08c379a000000000000000000000000000000000000000000000000000000000815260040161149590612413565b60405180910390fd5b565b60606114c68273ffffffffffffffffffffffffffffffffffffffff16601460ff166114cd565b9050919050565b6060600060028360026114e09190611c90565b6114ea9190612433565b67ffffffffffffffff81111561150357611502612467565b5b6040519080825280601f01601f1916602001820160405280156115355781602001600182028036833780820191505090505b5090507f30000000000000000000000000000000000000000000000000000000000000008160008151811061156d5761156c612496565b5b60200101907effffffffffffffffffffffffffffffffffffffffffffffffffffffffffffff1916908160001a9053507f7800000000000000000000000000000000000000000000000000000000000000816001815181106115d1576115d0612496565b5b60200101907effffffffffffffffffffffffffffffffffffffffffffffffffffffffffffff1916908160001a905350600060018460026116119190611c90565b61161b9190612433565b90505b60018111156116bb577f3031323334353637383961626364656600000000000000000000000000000000600f86166010811061165d5761165c612496565b5b1a60f81b82828151811061167457611673612496565b5b60200101907effffffffffffffffffffffffffffffffffffffffffffffffffffffffffffff1916908160001a905350600485901c9450806116b4906124c5565b905061161e565b50600084146116ff576040517f08c379a00000000000000000000000000000000000000000000000000000000081526004016116f69061253a565b60405180910390fd5b8091505092915050565b600080fd5b60007fffffffff0000000000000000000000000000000000000000000000000000000082169050919050565b6117438161170e565b811461174e57600080fd5b50565b6000813590506117608161173a565b92915050565b60006020828403121561177c5761177b611709565b5b600061178a84828501611751565b91505092915050565b60008115159050919050565b6117a881611793565b82525050565b60006020820190506117c3600083018461179f565b92915050565b6000819050919050565b6117dc816117c9565b82525050565b60006020820190506117f760008301846117d3565b92915050565b600073ffffffffffffffffffffffffffffffffffffffff82169050919050565b6000611828826117fd565b9050919050565b6118388161181d565b811461184357600080fd5b50565b6000813590506118558161182f565b92915050565b611864816117c9565b811461186f57600080fd5b50565b6000813590506118818161185b565b92915050565b6000806040838503121561189e5761189d611709565b5b60006118ac85828601611846565b92505060206118bd85828601611872565b9150509250929050565b6000602082840312156118dd576118dc611709565b5b60006118eb84828501611872565b91505092915050565b6000819050919050565b611907816118f4565b811461191257600080fd5b50565b600081359050611924816118fe565b92915050565b6000602082840312156119405761193f611709565b5b600061194e84828501611915565b91505092915050565b611960816118f4565b82525050565b600060208201905061197b6000830184611957565b92915050565b6000806040838503121561199857611997611709565b5b60006119a685828601611915565b92505060206119b785828601611846565b9150509250929050565b6000819050919050565b60006119e66119e16119dc846117fd565b6119c1565b6117fd565b9050919050565b60006119f8826119cb565b9050919050565b6000611a0a826119ed565b9050919050565b611a1a816119ff565b82525050565b6000602082019050611a356000830184611a11565b92915050565b60008060408385031215611a5257611a51611709565b5b6000611a6085828601611872565b9250506020611a7185828601611872565b9150509250929050565b600082825260208201905092915050565b7f496e76616c696420746f6b656e00000000000000000000000000000000000000600082015250565b6000611ac2600d83611a7b565b9150611acd82611a8c565b602082019050919050565b60006020820190508181036000830152611af181611ab5565b9050919050565b611b018161181d565b82525050565b6000604082019050611b1c6000830185611af8565b611b2960208301846117d3565b9392505050565b611b3981611793565b8114611b4457600080fd5b50565b600081519050611b5681611b30565b92915050565b600060208284031215611b7257611b71611709565b5b6000611b8084828501611b47565b91505092915050565b7f5472616e73666572206661696c65640000000000000000000000000000000000600082015250565b6000611bbf600f83611a7b565b9150611bca82611b89565b602082019050919050565b60006020820190508181036000830152611bee81611bb2565b9050919050565b7f416d6f756e74206d7573742062652067726561746572207468616e2030000000600082015250565b6000611c2b601d83611a7b565b9150611c3682611bf5565b602082019050919050565b60006020820190508181036000830152611c5a81611c1e565b9050919050565b7f4e487b7100000000000000000000000000000000000000000000000000000000600052601160045260246000fd5b6000611c9b826117c9565b9150611ca6836117c9565b9250828202611cb4816117c9565b91508282048414831517611ccb57611cca611c61565b5b5092915050565b7f4e487b7100000000000000000000000000000000000000000000000000000000600052601260045260246000fd5b6000611d0c826117c9565b9150611d17836117c9565b925082611d2757611d26611cd2565b5b828204905092915050565b7f4f757470757420616d6f756e7420746f6f20736d616c6c000000000000000000600082015250565b6000611d68601783611a7b565b9150611d7382611d32565b602082019050919050565b60006020820190508181036000830152611d9781611d5b565b9050919050565b6000602082019050611db36000830184611af8565b92915050565b600081519050611dc88161185b565b92915050565b600060208284031215611de457611de3611709565b5b6000611df284828501611db9565b91505092915050565b7f496e73756666696369656e742047616d652062616c616e636500000000000000600082015250565b6000611e31601983611a7b565b9150611e3c82611dfb565b602082019050919050565b60006020820190508181036000830152611e6081611e24565b9050919050565b6000606082019050611e7c6000830186611af8565b611e896020830185611af8565b611e9660408301846117d3565b949350505050565b7f45445520746f6b656e207472616e73666572206661696c656400000000000000600082015250565b6000611ed4601983611a7b565b9150611edf82611e9e565b602082019050919050565b60006020820190508181036000830152611f0381611ec7565b9050919050565b7f47616d6520746f6b656e207472616e73666572206661696c6564000000000000600082015250565b6000611f40601a83611a7b565b9150611f4b82611f0a565b602082019050919050565b60006020820190508181036000830152611f6f81611f33565b9050919050565b6000606082019050611f8b60008301866117d3565b611f9860208301856117d3565b611fa5604083018461179f565b949350505050565b7f416363657373436f6e74726f6c3a2063616e206f6e6c792072656e6f756e636560008201527f20726f6c657320666f722073656c660000000000000000000000000000000000602082015250565b6000612009602f83611a7b565b915061201482611fad565b604082019050919050565b6000602082019050818103600083015261203881611ffc565b9050919050565b7f496e73756666696369656e74204544552062616c616e63650000000000000000600082015250565b6000612075601883611a7b565b91506120808261203f565b602082019050919050565b600060208201905081810360008301526120a481612068565b9050919050565b7f496e76616c696420726174657300000000000000000000000000000000000000600082015250565b60006120e1600d83611a7b565b91506120ec826120ab565b602082019050919050565b60006020820190508181036000830152612110816120d4565b9050919050565b600060408201905061212c60008301856117d3565b61213960208301846117d3565b9392505050565b7f5265656e7472616e637947756172643a207265656e7472616e742063616c6c00600082015250565b6000612176601f83611a7b565b915061218182612140565b602082019050919050565b600060208201905081810360008301526121a581612169565b9050919050565b7f5061757361626c653a2070617573656400000000000000000000000000000000600082015250565b60006121e2601083611a7b565b91506121ed826121ac565b602082019050919050565b60006020820190508181036000830152612211816121d5565b9050919050565b600081905092915050565b7f416363657373436f6e74726f6c3a206163636f756e7420000000000000000000600082015250565b6000612259601783612218565b915061226482612223565b601782019050919050565b600081519050919050565b60005b8381101561229857808201518184015260208101905061227d565b60008484015250505050565b60006122af8261226f565b6122b98185612218565b93506122c981856020860161227a565b80840191505092915050565b7f206973206d697373696e6720726f6c6520000000000000000000000000000000600082015250565b600061230b601183612218565b9150612316826122d5565b601182019050919050565b600061232c8261224c565b915061233882856122a4565b9150612343826122fe565b915061234f82846122a4565b91508190509392505050565b6000601f19601f8301169050919050565b60006123778261226f565b6123818185611a7b565b935061239181856020860161227a565b61239a8161235b565b840191505092915050565b600060208201905081810360008301526123bf818461236c565b905092915050565b7f5061757361626c653a206e6f7420706175736564000000000000000000000000600082015250565b60006123fd601483611a7b565b9150612408826123c7565b602082019050919050565b6000602082019050818103600083015261242c816123f0565b9050919050565b600061243e826117c9565b9150612449836117c9565b925082820190508082111561246157612460611c61565b5b92915050565b7f4e487b7100000000000000000000000000000000000000000000000000000000600052604160045260246000fd5b7f4e487b7100000000000000000000000000000000000000000000000000000000600052603260045260246000fd5b60006124d0826117c9565b9150600082036124e3576124e2611c61565b5b600182039050919050565b7f537472696e67733a20686578206c656e67746820696e73756666696369656e74600082015250565b6000612524602083611a7b565b915061252f826124ee565b602082019050919050565b6000602082019050818103600083015261255381612517565b905091905056fea2646970667358221220f194491e7dc0f2a6db2deff6ce200bb66a1e4c59a06d47bd6b2aaa58015d5d1f64736f6c63430008150033",
  "linkReferences": {},
  "deployedLinkReferences": {}
}