{
  "_format": "hh-sol-artifact-1",
  "contractName": "AstralNexusToken",
  "sourceName": "contracts/AstraNexus.sol",
  "abi": [
    {
      "inputs": [
        {
          "internalType": "uint256",
          "name": "initialSupply",
          "type": "uint256"
        }
      ],
      "stateMutability": "nonpayable",
      "type": "constructor"
    },
    {
      "anonymous": false,
      "inputs": [
        {
          "indexed": true,
          "internalType": "address",
          "name": "owner",
          "type": "address"
        },
        {
          "indexed": true,
          "internalType": "address",
          "name": "spender",
          "type": "address"
        },
        {
          "indexed": false,
          "internalType": "uint256",
          "name": "value",
          "type": "uint256"
        }
      ],
      "name": "Approval",
      "type": "event"
    },
    {
      "anonymous": false,
      "inputs": [
        {
          "indexed": false,
          "internalType": "address",
          "name": "account",
          "type": "address"
        }
      ],
      "name": "Paused",
      "type": "event"
    },
    {
      "anonymous": false,
      "inputs": [
        {
          "indexed": true,
          "internalType": "bytes32",
          "name": "role",
          "type": "bytes32"
        },
        {
          "indexed": true,
          "internalType": "bytes32",
          "name": "previousAdminRole",
          "type": "bytes32"
        },
        {
          "indexed": true,
          "internalType": "bytes32",
          "name": "newAdminRole",
          "type": "bytes32"
        }
      ],
      "name": "RoleAdminChanged",
      "type": "event"
    },
    {
      "anonymous": false,
      "inputs": [
        {
          "indexed": true,
          "internalType": "bytes32",
          "name": "role",
          "type": "bytes32"
        },
        {
          "indexed": true,
          "internalType": "address",
          "name": "account",
          "type": "address"
        },
        {
          "indexed": true,
          "internalType": "address",
          "name": "sender",
          "type": "address"
        }
      ],
      "name": "RoleGranted",
      "type": "event"
    },
    {
      "anonymous": false,
      "inputs": [
        {
          "indexed": true,
          "internalType": "bytes32",
          "name": "role",
          "type": "bytes32"
        },
        {
          "indexed": true,
          "internalType": "address",
          "name": "account",
          "type": "address"
        },
        {
          "indexed": true,
          "internalType": "address",
          "name": "sender",
          "type": "address"
        }
      ],
      "name": "RoleRevoked",
      "type": "event"
    },
    {
      "anonymous": false,
      "inputs": [
        {
          "indexed": true,
          "internalType": "address",
          "name": "from",
          "type": "address"
        },
        {
          "indexed": true,
          "internalType": "address",
          "name": "to",
          "type": "address"
        },
        {
          "indexed": false,
          "internalType": "uint256",
          "name": "value",
          "type": "uint256"
        }
      ],
      "name": "Transfer",
      "type": "event"
    },
    {
      "anonymous": false,
      "inputs": [
        {
          "indexed": false,
          "internalType": "address",
          "name": "account",
          "type": "address"
        }
      ],
      "name": "Unpaused",
      "type": "event"
    },
    {
      "inputs": [],
      "name": "DEFAULT_ADMIN_ROLE",
      "outputs": [
        {
          "internalType": "bytes32",
          "name": "",
          "type": "bytes32"
        }
      ],
      "stateMutability": "view",
      "type": "function"
    },
    {
      "inputs": [],
      "name": "MINTER_ROLE",
      "outputs": [
        {
          "internalType": "bytes32",
          "name": "",
          "type": "bytes32"
        }
      ],
      "stateMutability": "view",
      "type": "function"
    },
    {
      "inputs": [
        {
          "internalType": "address",
          "name": "owner",
          "type": "address"
        },
        {
          "internalType": "address",
          "name": "spender",
          "type": "address"
        }
      ],
      "name": "allowance",
      "outputs": [
        {
          "internalType": "uint256",
          "name": "",
          "type": "uint256"
        }
      ],
      "stateMutability": "view",
      "type": "function"
    },
    {
      "inputs": [
        {
          "internalType": "address",
          "name": "spender",
          "type": "address"
        },
        {
          "internalType": "uint256",
          "name": "amount",
          "type": "uint256"
        }
      ],
      "name": "approve",
      "outputs": [
        {
          "internalType": "bool",
          "name": "",
          "type": "bool"
        }
      ],
      "stateMutability": "nonpayable",
      "type": "function"
    },
    {
      "inputs": [
        {
          "internalType": "address",
          "name": "account",
          "type": "address"
        }
      ],
      "name": "balanceOf",
      "outputs": [
        {
          "internalType": "uint256",
          "name": "",
          "type": "uint256"
        }
      ],
      "stateMutability": "view",
      "type": "function"
    },
    {
      "inputs": [
        {
          "internalType": "uint256",
          "name": "amount",
          "type": "uint256"
        }
      ],
      "name": "burn",
      "outputs": [],
      "stateMutability": "nonpayable",
      "type": "function"
    },
    {
      "inputs": [
        {
          "internalType": "address",
          "name": "account",
          "type": "address"
        },
        {
          "internalType": "uint256",
          "name": "amount",
          "type": "uint256"
        }
      ],
      "name": "burnFrom",
      "outputs": [],
      "stateMutability": "nonpayable",
      "type": "function"
    },
    {
      "inputs": [],
      "name": "decimals",
      "outputs": [
        {
          "internalType": "uint8",
          "name": "",
          "type": "uint8"
        }
      ],
      "stateMutability": "view",
      "type": "function"
    },
    {
      "inputs": [
        {
          "internalType": "address",
          "name": "spender",
          "type": "address"
        },
        {
          "internalType": "uint256",
          "name": "subtractedValue",
          "type": "uint256"
        }
      ],
      "name": "decreaseAllowance",
      "outputs": [
        {
          "internalType": "bool",
          "name": "",
          "type": "bool"
        }
      ],
      "stateMutability": "nonpayable",
      "type": "function"
    },
    {
      "inputs": [
        {
          "internalType": "bytes32",
          "name": "role",
          "type": "bytes32"
        }
      ],
      "name": "getRoleAdmin",
      "outputs": [
        {
          "internalType": "bytes32",
          "name": "",
          "type": "bytes32"
        }
      ],
      "stateMutability": "view",
      "type": "function"
    },
    {
      "inputs": [
        {
          "internalType": "bytes32",
          "name": "role",
          "type": "bytes32"
        },
        {
          "internalType": "address",
          "name": "account",
          "type": "address"
        }
      ],
      "name": "grantRole",
      "outputs": [],
      "stateMutability": "nonpayable",
      "type": "function"
    },
    {
      "inputs": [
        {
          "internalType": "bytes32",
          "name": "role",
          "type": "bytes32"
        },
        {
          "internalType": "address",
          "name": "account",
          "type": "address"
        }
      ],
      "name": "hasRole",
      "outputs": [
        {
          "internalType": "bool",
          "name": "",
          "type": "bool"
        }
      ],
      "stateMutability": "view",
      "type": "function"
    },
    {
      "inputs": [
        {
          "internalType": "address",
          "name": "spender",
          "type": "address"
        },
        {
          "internalType": "uint256",
          "name": "addedValue",
          "type": "uint256"
        }
      ],
      "name": "increaseAllowance",
      "outputs": [
        {
          "internalType": "bool",
          "name": "",
          "type": "bool"
        }
      ],
      "stateMutability": "nonpayable",
      "type": "function"
    },
    {
      "inputs": [
        {
          "internalType": "address",
          "name": "to",
          "type": "address"
        },
        {
          "internalType": "uint256",
          "name": "amount",
          "type": "uint256"
        }
      ],
      "name": "mint",
      "outputs": [],
      "stateMutability": "nonpayable",
      "type": "function"
    },
    {
      "inputs": [],
      "name": "name",
      "outputs": [
        {
          "internalType": "string",
          "name": "",
          "type": "string"
        }
      ],
      "stateMutability": "view",
      "type": "function"
    },
    {
      "inputs": [],
      "name": "pause",
      "outputs": [],
      "stateMutability": "nonpayable",
      "type": "function"
    },
    {
      "inputs": [],
      "name": "paused",
      "outputs": [
        {
          "internalType": "bool",
          "name": "",
          "type": "bool"
        }
      ],
      "stateMutability": "view",
      "type": "function"
    },
    {
      "inputs": [
        {
          "internalType": "bytes32",
          "name": "role",
          "type": "bytes32"
        },
        {
          "internalType": "address",
          "name": "account",
          "type": "address"
        }
      ],
      "name": "renounceRole",
      "outputs": [],
      "stateMutability": "nonpayable",
      "type": "function"
    },
    {
      "inputs": [
        {
          "internalType": "bytes32",
          "name": "role",
          "type": "bytes32"
        },
        {
          "internalType": "address",
          "name": "account",
          "type": "address"
        }
      ],
      "name": "revokeRole",
      "outputs": [],
      "stateMutability": "nonpayable",
      "type": "function"
    },
    {
      "inputs": [
        {
          "internalType": "bytes4",
          "name": "interfaceId",
          "type": "bytes4"
        }
      ],
      "name": "supportsInterface",
      "outputs": [
        {
          "internalType": "bool",
          "name": "",
          "type": "bool"
        }
      ],
      "stateMutability": "view",
      "type": "function"
    },
    {
      "inputs": [],
      "name": "symbol",
      "outputs": [
        {
          "internalType": "string",
          "name": "",
          "type": "string"
        }
      ],
      "stateMutability": "view",
      "type": "function"
    },
    {
      "inputs": [],
      "name": "totalSupply",
      "outputs": [
        {
          "internalType": "uint256",
          "name": "",
          "type": "uint256"
        }
      ],
      "stateMutability": "view",
      "type": "function"
    },
    {
      "inputs": [
        {
          "internalType": "address",
          "name": "to",
          "type": "address"
        },
        {
          "internalType": "uint256",
          "name": "amount",
          "type": "uint256"
        }
      ],
      "name": "transfer",
      "outputs": [
        {
          "internalType": "bool",
          "name": "",
          "type": "bool"
        }
      ],
      "stateMutability": "nonpayable",
      "type": "function"
    },
    {
      "inputs": [
        {
          "internalType": "address",
          "name": "from",
          "type": "address"
        },
        {
          "internalType": "address",
          "name": "to",
          "type": "address"
        },
        {
          "internalType": "uint256",
          "name": "amount",
          "type": "uint256"
        }
      ],
      "name": "transferFrom",
      "outputs": [
        {
          "internalType": "bool",
          "name": "",
          "type": "bool"
        }
      ],
      "stateMutability": "nonpayable",
      "type": "function"
    },
    {
      "inputs": [],
      "name": "unpause",
      "outputs": [],
      "stateMutability": "nonpayable",
      "type": "function"
    }
  ],
  "bytecode": "0x60806040523480156200001157600080fd5b50604051620034f3380380620034f383398181016040528101906200003791906200052b565b6040518060400160405280601281526020017f41737472616c204e6578757320546f6b656e00000000000000000000000000008152506040518060400160405280600381526020017f414e5400000000000000000000000000000000000000000000000000000000008152508160039081620000b49190620007cd565b508060049081620000c69190620007cd565b5050506000600660006101000a81548160ff021916908315150217905550620000f96000801b336200016e60201b60201c565b6200012b7f9f2df0fed2c77648de5860a4cc508cd0818c85b8b8a1ab4ceeef8d981c8956a6336200016e60201b60201c565b6200016733620001406200018460201b60201c565b600a6200014e919062000a44565b836200015b919062000a95565b6200018d60201b60201c565b5062000c3e565b620001808282620002fa60201b60201c565b5050565b60006012905090565b600073ffffffffffffffffffffffffffffffffffffffff168273ffffffffffffffffffffffffffffffffffffffff1603620001ff576040517f08c379a0000000000000000000000000000000000000000000000000000000008152600401620001f69062000b41565b60405180910390fd5b6200021360008383620003ec60201b60201c565b806002600082825462000227919062000b63565b92505081905550806000808473ffffffffffffffffffffffffffffffffffffffff1673ffffffffffffffffffffffffffffffffffffffff168152602001908152602001600020600082825401925050819055508173ffffffffffffffffffffffffffffffffffffffff16600073ffffffffffffffffffffffffffffffffffffffff167fddf252ad1be2c89b69c2b068fc378daa952ba7f163c4a11628f55a4df523b3ef83604051620002da919062000baf565b60405180910390a3620002f6600083836200045760201b60201c565b5050565b6200030c82826200045c60201b60201c565b620003e85760016005600084815260200190815260200160002060000160008373ffffffffffffffffffffffffffffffffffffffff1673ffffffffffffffffffffffffffffffffffffffff16815260200190815260200160002060006101000a81548160ff0219169083151502179055506200038d620004c760201b60201c565b73ffffffffffffffffffffffffffffffffffffffff168173ffffffffffffffffffffffffffffffffffffffff16837f2f8788117e7eff1d82e926ec794901d17c78024a50270940304540a733656f0d60405160405180910390a45b5050565b620003ff838383620004cf60201b60201c565b6200040f620004d460201b60201c565b1562000452576040517f08c379a0000000000000000000000000000000000000000000000000000000008152600401620004499062000c1c565b60405180910390fd5b505050565b505050565b60006005600084815260200190815260200160002060000160008373ffffffffffffffffffffffffffffffffffffffff1673ffffffffffffffffffffffffffffffffffffffff16815260200190815260200160002060009054906101000a900460ff16905092915050565b600033905090565b505050565b6000600660009054906101000a900460ff16905090565b600080fd5b6000819050919050565b6200050581620004f0565b81146200051157600080fd5b50565b6000815190506200052581620004fa565b92915050565b600060208284031215620005445762000543620004eb565b5b6000620005548482850162000514565b91505092915050565b600081519050919050565b7f4e487b7100000000000000000000000000000000000000000000000000000000600052604160045260246000fd5b7f4e487b7100000000000000000000000000000000000000000000000000000000600052602260045260246000fd5b60006002820490506001821680620005df57607f821691505b602082108103620005f557620005f462000597565b5b50919050565b60008190508160005260206000209050919050565b60006020601f8301049050919050565b600082821b905092915050565b6000600883026200065f7fffffffffffffffffffffffffffffffffffffffffffffffffffffffffffffffff8262000620565b6200066b868362000620565b95508019841693508086168417925050509392505050565b6000819050919050565b6000620006ae620006a8620006a284620004f0565b62000683565b620004f0565b9050919050565b6000819050919050565b620006ca836200068d565b620006e2620006d982620006b5565b8484546200062d565b825550505050565b600090565b620006f9620006ea565b62000706818484620006bf565b505050565b5b818110156200072e5762000722600082620006ef565b6001810190506200070c565b5050565b601f8211156200077d576200074781620005fb565b620007528462000610565b8101602085101562000762578190505b6200077a620007718562000610565b8301826200070b565b50505b505050565b600082821c905092915050565b6000620007a26000198460080262000782565b1980831691505092915050565b6000620007bd83836200078f565b9150826002028217905092915050565b620007d8826200055d565b67ffffffffffffffff811115620007f457620007f362000568565b5b620008008254620005c6565b6200080d82828562000732565b600060209050601f83116001811462000845576000841562000830578287015190505b6200083c8582620007af565b865550620008ac565b601f1984166200085586620005fb565b60005b828110156200087f5784890151825560018201915060208501945060208101905062000858565b868310156200089f57848901516200089b601f8916826200078f565b8355505b6001600288020188555050505b505050505050565b7f4e487b7100000000000000000000000000000000000000000000000000000000600052601160045260246000fd5b60008160011c9050919050565b6000808291508390505b600185111562000942578086048111156200091a5762000919620008b4565b5b60018516156200092a5780820291505b80810290506200093a85620008e3565b9450620008fa565b94509492505050565b6000826200095d576001905062000a30565b816200096d576000905062000a30565b81600181146200098657600281146200099157620009c7565b600191505062000a30565b60ff841115620009a657620009a5620008b4565b5b8360020a915084821115620009c057620009bf620008b4565b5b5062000a30565b5060208310610133831016604e8410600b841016171562000a015782820a905083811115620009fb57620009fa620008b4565b5b62000a30565b62000a108484846001620008f0565b9250905081840481111562000a2a5762000a29620008b4565b5b81810290505b9392505050565b600060ff82169050919050565b600062000a5182620004f0565b915062000a5e8362000a37565b925062000a8d7fffffffffffffffffffffffffffffffffffffffffffffffffffffffffffffffff84846200094b565b905092915050565b600062000aa282620004f0565b915062000aaf83620004f0565b925082820262000abf81620004f0565b9150828204841483151762000ad95762000ad8620008b4565b5b5092915050565b600082825260208201905092915050565b7f45524332303a206d696e7420746f20746865207a65726f206164647265737300600082015250565b600062000b29601f8362000ae0565b915062000b368262000af1565b602082019050919050565b6000602082019050818103600083015262000b5c8162000b1a565b9050919050565b600062000b7082620004f0565b915062000b7d83620004f0565b925082820190508082111562000b985762000b97620008b4565b5b92915050565b62000ba981620004f0565b82525050565b600060208201905062000bc6600083018462000b9e565b92915050565b7f546f6b656e207472616e73666572732070617573656400000000000000000000600082015250565b600062000c0460168362000ae0565b915062000c118262000bcc565b602082019050919050565b6000602082019050818103600083015262000c378162000bf5565b9050919050565b6128a58062000c4e6000396000f3fe608060405234801561001057600080fd5b50600436106101735760003560e01c806342966c68116100de57806395d89b4111610097578063a9059cbb11610071578063a9059cbb1461044c578063d53913931461047c578063d547741f1461049a578063dd62ed3e146104b657610173565b806395d89b41146103e0578063a217fddf146103fe578063a457c2d71461041c57610173565b806342966c68146103205780635c975abb1461033c57806370a082311461035a57806379cc67901461038a5780638456cb59146103a657806391d14854146103b057610173565b80632f2ff15d116101305780632f2ff15d14610274578063313ce5671461029057806336568abe146102ae57806339509351146102ca5780633f4ba83a146102fa57806340c10f191461030457610173565b806301ffc9a71461017857806306fdde03146101a8578063095ea7b3146101c657806318160ddd146101f657806323b872dd14610214578063248a9ca314610244575b600080fd5b610192600480360381019061018d91906119fd565b6104e6565b60405161019f9190611a45565b60405180910390f35b6101b0610560565b6040516101bd9190611af0565b60405180910390f35b6101e060048036038101906101db9190611ba6565b6105f2565b6040516101ed9190611a45565b60405180910390f35b6101fe610615565b60405161020b9190611bf5565b60405180910390f35b61022e60048036038101906102299190611c10565b61061f565b60405161023b9190611a45565b60405180910390f35b61025e60048036038101906102599190611c99565b61064e565b60405161026b9190611cd5565b60405180910390f35b61028e60048036038101906102899190611cf0565b61066e565b005b61029861068f565b6040516102a59190611d4c565b60405180910390f35b6102c860048036038101906102c39190611cf0565b610698565b005b6102e460048036038101906102df9190611ba6565b61071b565b6040516102f19190611a45565b60405180910390f35b610302610752565b005b61031e60048036038101906103199190611ba6565b61076a565b005b61033a60048036038101906103359190611d67565b6107ab565b005b6103446107bf565b6040516103519190611a45565b60405180910390f35b610374600480360381019061036f9190611d94565b6107d6565b6040516103819190611bf5565b60405180910390f35b6103a4600480360381019061039f9190611ba6565b61081e565b005b6103ae61083e565b005b6103ca60048036038101906103c59190611cf0565b610856565b6040516103d79190611a45565b60405180910390f35b6103e86108c1565b6040516103f59190611af0565b60405180910390f35b610406610953565b6040516104139190611cd5565b60405180910390f35b61043660048036038101906104319190611ba6565b61095a565b6040516104439190611a45565b60405180910390f35b61046660048036038101906104619190611ba6565b6109d1565b6040516104739190611a45565b60405180910390f35b6104846109f4565b6040516104919190611cd5565b60405180910390f35b6104b460048036038101906104af9190611cf0565b610a18565b005b6104d060048036038101906104cb9190611dc1565b610a39565b6040516104dd9190611bf5565b60405180910390f35b60007f7965db0b000000000000000000000000000000000000000000000000000000007bffffffffffffffffffffffffffffffffffffffffffffffffffffffff1916827bffffffffffffffffffffffffffffffffffffffffffffffffffffffff19161480610559575061055882610ac0565b5b9050919050565b60606003805461056f90611e30565b80601f016020809104026020016040519081016040528092919081815260200182805461059b90611e30565b80156105e85780601f106105bd576101008083540402835291602001916105e8565b820191906000526020600020905b8154815290600101906020018083116105cb57829003601f168201915b5050505050905090565b6000806105fd610b2a565b905061060a818585610b32565b600191505092915050565b6000600254905090565b60008061062a610b2a565b9050610637858285610cfb565b610642858585610d87565b60019150509392505050565b600060056000838152602001908152602001600020600101549050919050565b6106778261064e565b61068081610ffd565b61068a8383611011565b505050565b60006012905090565b6106a0610b2a565b73ffffffffffffffffffffffffffffffffffffffff168173ffffffffffffffffffffffffffffffffffffffff161461070d576040517f08c379a000000000000000000000000000000000000000000000000000000000815260040161070490611ed3565b60405180910390fd5b61071782826110f2565b5050565b600080610726610b2a565b90506107478185856107388589610a39565b6107429190611f22565b610b32565b600191505092915050565b6000801b61075f81610ffd565b6107676111d4565b50565b7f9f2df0fed2c77648de5860a4cc508cd0818c85b8b8a1ab4ceeef8d981c8956a661079481610ffd565b61079c611237565b6107a68383611281565b505050565b6107bc6107b6610b2a565b826113d7565b50565b6000600660009054906101000a900460ff16905090565b60008060008373ffffffffffffffffffffffffffffffffffffffff1673ffffffffffffffffffffffffffffffffffffffff168152602001908152602001600020549050919050565b6108308261082a610b2a565b83610cfb565b61083a82826113d7565b5050565b6000801b61084b81610ffd565b6108536115a4565b50565b60006005600084815260200190815260200160002060000160008373ffffffffffffffffffffffffffffffffffffffff1673ffffffffffffffffffffffffffffffffffffffff16815260200190815260200160002060009054906101000a900460ff16905092915050565b6060600480546108d090611e30565b80601f01602080910402602001604051908101604052809291908181526020018280546108fc90611e30565b80156109495780601f1061091e57610100808354040283529160200191610949565b820191906000526020600020905b81548152906001019060200180831161092c57829003601f168201915b5050505050905090565b6000801b81565b600080610965610b2a565b905060006109738286610a39565b9050838110156109b8576040517f08c379a00000000000000000000000000000000000000000000000000000000081526004016109af90611fc8565b60405180910390fd5b6109c58286868403610b32565b60019250505092915050565b6000806109dc610b2a565b90506109e9818585610d87565b600191505092915050565b7f9f2df0fed2c77648de5860a4cc508cd0818c85b8b8a1ab4ceeef8d981c8956a681565b610a218261064e565b610a2a81610ffd565b610a3483836110f2565b505050565b6000600160008473ffffffffffffffffffffffffffffffffffffffff1673ffffffffffffffffffffffffffffffffffffffff16815260200190815260200160002060008373ffffffffffffffffffffffffffffffffffffffff1673ffffffffffffffffffffffffffffffffffffffff16815260200190815260200160002054905092915050565b60007f01ffc9a7000000000000000000000000000000000000000000000000000000007bffffffffffffffffffffffffffffffffffffffffffffffffffffffff1916827bffffffffffffffffffffffffffffffffffffffffffffffffffffffff1916149050919050565b600033905090565b600073ffffffffffffffffffffffffffffffffffffffff168373ffffffffffffffffffffffffffffffffffffffff1603610ba1576040517f08c379a0000000000000000000000000000000000000000000000000000000008152600401610b989061205a565b60405180910390fd5b600073ffffffffffffffffffffffffffffffffffffffff168273ffffffffffffffffffffffffffffffffffffffff1603610c10576040517f08c379a0000000000000000000000000000000000000000000000000000000008152600401610c07906120ec565b60405180910390fd5b80600160008573ffffffffffffffffffffffffffffffffffffffff1673ffffffffffffffffffffffffffffffffffffffff16815260200190815260200160002060008473ffffffffffffffffffffffffffffffffffffffff1673ffffffffffffffffffffffffffffffffffffffff168152602001908152602001600020819055508173ffffffffffffffffffffffffffffffffffffffff168373ffffffffffffffffffffffffffffffffffffffff167f8c5be1e5ebec7d5bd14f71427d1e84f3dd0314c0f7b2291e5b200ac8c7c3b92583604051610cee9190611bf5565b60405180910390a3505050565b6000610d078484610a39565b90507fffffffffffffffffffffffffffffffffffffffffffffffffffffffffffffffff8114610d815781811015610d73576040517f08c379a0000000000000000000000000000000000000000000000000000000008152600401610d6a90612158565b60405180910390fd5b610d808484848403610b32565b5b50505050565b600073ffffffffffffffffffffffffffffffffffffffff168373ffffffffffffffffffffffffffffffffffffffff1603610df6576040517f08c379a0000000000000000000000000000000000000000000000000000000008152600401610ded906121ea565b60405180910390fd5b600073ffffffffffffffffffffffffffffffffffffffff168273ffffffffffffffffffffffffffffffffffffffff1603610e65576040517f08c379a0000000000000000000000000000000000000000000000000000000008152600401610e5c9061227c565b60405180910390fd5b610e70838383611607565b60008060008573ffffffffffffffffffffffffffffffffffffffff1673ffffffffffffffffffffffffffffffffffffffff16815260200190815260200160002054905081811015610ef6576040517f08c379a0000000000000000000000000000000000000000000000000000000008152600401610eed9061230e565b60405180910390fd5b8181036000808673ffffffffffffffffffffffffffffffffffffffff1673ffffffffffffffffffffffffffffffffffffffff16815260200190815260200160002081905550816000808573ffffffffffffffffffffffffffffffffffffffff1673ffffffffffffffffffffffffffffffffffffffff168152602001908152602001600020600082825401925050819055508273ffffffffffffffffffffffffffffffffffffffff168473ffffffffffffffffffffffffffffffffffffffff167fddf252ad1be2c89b69c2b068fc378daa952ba7f163c4a11628f55a4df523b3ef84604051610fe49190611bf5565b60405180910390a3610ff784848461165f565b50505050565b61100e81611009610b2a565b611664565b50565b61101b8282610856565b6110ee5760016005600084815260200190815260200160002060000160008373ffffffffffffffffffffffffffffffffffffffff1673ffffffffffffffffffffffffffffffffffffffff16815260200190815260200160002060006101000a81548160ff021916908315150217905550611093610b2a565b73ffffffffffffffffffffffffffffffffffffffff168173ffffffffffffffffffffffffffffffffffffffff16837f2f8788117e7eff1d82e926ec794901d17c78024a50270940304540a733656f0d60405160405180910390a45b5050565b6110fc8282610856565b156111d05760006005600084815260200190815260200160002060000160008373ffffffffffffffffffffffffffffffffffffffff1673ffffffffffffffffffffffffffffffffffffffff16815260200190815260200160002060006101000a81548160ff021916908315150217905550611175610b2a565b73ffffffffffffffffffffffffffffffffffffffff168173ffffffffffffffffffffffffffffffffffffffff16837ff6391f5c32d9c69d2a47ea670b442974b53935d1edc7fd64eb21e047a839171b60405160405180910390a45b5050565b6111dc6116e9565b6000600660006101000a81548160ff0219169083151502179055507f5db9ee0a495bf2e6ff9c91a7834c1ba4fdd244a5e8aa4e537bd38aeae4b073aa611220610b2a565b60405161122d919061233d565b60405180910390a1565b61123f6107bf565b1561127f576040517f08c379a0000000000000000000000000000000000000000000000000000000008152600401611276906123a4565b60405180910390fd5b565b600073ffffffffffffffffffffffffffffffffffffffff168273ffffffffffffffffffffffffffffffffffffffff16036112f0576040517f08c379a00000000000000000000000000000000000000000000000000000000081526004016112e790612410565b60405180910390fd5b6112fc60008383611607565b806002600082825461130e9190611f22565b92505081905550806000808473ffffffffffffffffffffffffffffffffffffffff1673ffffffffffffffffffffffffffffffffffffffff168152602001908152602001600020600082825401925050819055508173ffffffffffffffffffffffffffffffffffffffff16600073ffffffffffffffffffffffffffffffffffffffff167fddf252ad1be2c89b69c2b068fc378daa952ba7f163c4a11628f55a4df523b3ef836040516113bf9190611bf5565b60405180910390a36113d36000838361165f565b5050565b600073ffffffffffffffffffffffffffffffffffffffff168273ffffffffffffffffffffffffffffffffffffffff1603611446576040517f08c379a000000000000000000000000000000000000000000000000000000000815260040161143d906124a2565b60405180910390fd5b61145282600083611607565b60008060008473ffffffffffffffffffffffffffffffffffffffff1673ffffffffffffffffffffffffffffffffffffffff168152602001908152602001600020549050818110156114d8576040517f08c379a00000000000000000000000000000000000000000000000000000000081526004016114cf90612534565b60405180910390fd5b8181036000808573ffffffffffffffffffffffffffffffffffffffff1673ffffffffffffffffffffffffffffffffffffffff1681526020019081526020016000208190555081600260008282540392505081905550600073ffffffffffffffffffffffffffffffffffffffff168373ffffffffffffffffffffffffffffffffffffffff167fddf252ad1be2c89b69c2b068fc378daa952ba7f163c4a11628f55a4df523b3ef8460405161158b9190611bf5565b60405180910390a361159f8360008461165f565b505050565b6115ac611237565b6001600660006101000a81548160ff0219169083151502179055507f62e78cea01bee320cd4e420270b5ea74000d11b0c9f74754ebdbfc544b05a2586115f0610b2a565b6040516115fd919061233d565b60405180910390a1565b611612838383611732565b61161a6107bf565b1561165a576040517f08c379a0000000000000000000000000000000000000000000000000000000008152600401611651906125a0565b60405180910390fd5b505050565b505050565b61166e8282610856565b6116e55761167b81611737565b6116898360001c6020611764565b60405160200161169a929190612694565b6040516020818303038152906040526040517f08c379a00000000000000000000000000000000000000000000000000000000081526004016116dc9190611af0565b60405180910390fd5b5050565b6116f16107bf565b611730576040517f08c379a00000000000000000000000000000000000000000000000000000000081526004016117279061271a565b60405180910390fd5b565b505050565b606061175d8273ffffffffffffffffffffffffffffffffffffffff16601460ff16611764565b9050919050565b606060006002836002611777919061273a565b6117819190611f22565b67ffffffffffffffff81111561179a5761179961277c565b5b6040519080825280601f01601f1916602001820160405280156117cc5781602001600182028036833780820191505090505b5090507f300000000000000000000000000000000000000000000000000000000000000081600081518110611804576118036127ab565b5b60200101907effffffffffffffffffffffffffffffffffffffffffffffffffffffffffffff1916908160001a9053507f780000000000000000000000000000000000000000000000000000000000000081600181518110611868576118676127ab565b5b60200101907effffffffffffffffffffffffffffffffffffffffffffffffffffffffffffff1916908160001a905350600060018460026118a8919061273a565b6118b29190611f22565b90505b6001811115611952577f3031323334353637383961626364656600000000000000000000000000000000600f8616601081106118f4576118f36127ab565b5b1a60f81b82828151811061190b5761190a6127ab565b5b60200101907effffffffffffffffffffffffffffffffffffffffffffffffffffffffffffff1916908160001a905350600485901c94508061194b906127da565b90506118b5565b5060008414611996576040517f08c379a000000000000000000000000000000000000000000000000000000000815260040161198d9061284f565b60405180910390fd5b8091505092915050565b600080fd5b60007fffffffff0000000000000000000000000000000000000000000000000000000082169050919050565b6119da816119a5565b81146119e557600080fd5b50565b6000813590506119f7816119d1565b92915050565b600060208284031215611a1357611a126119a0565b5b6000611a21848285016119e8565b91505092915050565b60008115159050919050565b611a3f81611a2a565b82525050565b6000602082019050611a5a6000830184611a36565b92915050565b600081519050919050565b600082825260208201905092915050565b60005b83811015611a9a578082015181840152602081019050611a7f565b60008484015250505050565b6000601f19601f8301169050919050565b6000611ac282611a60565b611acc8185611a6b565b9350611adc818560208601611a7c565b611ae581611aa6565b840191505092915050565b60006020820190508181036000830152611b0a8184611ab7565b905092915050565b600073ffffffffffffffffffffffffffffffffffffffff82169050919050565b6000611b3d82611b12565b9050919050565b611b4d81611b32565b8114611b5857600080fd5b50565b600081359050611b6a81611b44565b92915050565b6000819050919050565b611b8381611b70565b8114611b8e57600080fd5b50565b600081359050611ba081611b7a565b92915050565b60008060408385031215611bbd57611bbc6119a0565b5b6000611bcb85828601611b5b565b9250506020611bdc85828601611b91565b9150509250929050565b611bef81611b70565b82525050565b6000602082019050611c0a6000830184611be6565b92915050565b600080600060608486031215611c2957611c286119a0565b5b6000611c3786828701611b5b565b9350506020611c4886828701611b5b565b9250506040611c5986828701611b91565b9150509250925092565b6000819050919050565b611c7681611c63565b8114611c8157600080fd5b50565b600081359050611c9381611c6d565b92915050565b600060208284031215611caf57611cae6119a0565b5b6000611cbd84828501611c84565b91505092915050565b611ccf81611c63565b82525050565b6000602082019050611cea6000830184611cc6565b92915050565b60008060408385031215611d0757611d066119a0565b5b6000611d1585828601611c84565b9250506020611d2685828601611b5b565b9150509250929050565b600060ff82169050919050565b611d4681611d30565b82525050565b6000602082019050611d616000830184611d3d565b92915050565b600060208284031215611d7d57611d7c6119a0565b5b6000611d8b84828501611b91565b91505092915050565b600060208284031215611daa57611da96119a0565b5b6000611db884828501611b5b565b91505092915050565b60008060408385031215611dd857611dd76119a0565b5b6000611de685828601611b5b565b9250506020611df785828601611b5b565b9150509250929050565b7f4e487b7100000000000000000000000000000000000000000000000000000000600052602260045260246000fd5b60006002820490506001821680611e4857607f821691505b602082108103611e5b57611e5a611e01565b5b50919050565b7f416363657373436f6e74726f6c3a2063616e206f6e6c792072656e6f756e636560008201527f20726f6c657320666f722073656c660000000000000000000000000000000000602082015250565b6000611ebd602f83611a6b565b9150611ec882611e61565b604082019050919050565b60006020820190508181036000830152611eec81611eb0565b9050919050565b7f4e487b7100000000000000000000000000000000000000000000000000000000600052601160045260246000fd5b6000611f2d82611b70565b9150611f3883611b70565b9250828201905080821115611f5057611f4f611ef3565b5b92915050565b7f45524332303a2064656372656173656420616c6c6f77616e63652062656c6f7760008201527f207a65726f000000000000000000000000000000000000000000000000000000602082015250565b6000611fb2602583611a6b565b9150611fbd82611f56565b604082019050919050565b60006020820190508181036000830152611fe181611fa5565b9050919050565b7f45524332303a20617070726f76652066726f6d20746865207a65726f2061646460008201527f7265737300000000000000000000000000000000000000000000000000000000602082015250565b6000612044602483611a6b565b915061204f82611fe8565b604082019050919050565b6000602082019050818103600083015261207381612037565b9050919050565b7f45524332303a20617070726f766520746f20746865207a65726f20616464726560008201527f7373000000000000000000000000000000000000000000000000000000000000602082015250565b60006120d6602283611a6b565b91506120e18261207a565b604082019050919050565b60006020820190508181036000830152612105816120c9565b9050919050565b7f45524332303a20696e73756666696369656e7420616c6c6f77616e6365000000600082015250565b6000612142601d83611a6b565b915061214d8261210c565b602082019050919050565b6000602082019050818103600083015261217181612135565b9050919050565b7f45524332303a207472616e736665722066726f6d20746865207a65726f20616460008201527f6472657373000000000000000000000000000000000000000000000000000000602082015250565b60006121d4602583611a6b565b91506121df82612178565b604082019050919050565b60006020820190508181036000830152612203816121c7565b9050919050565b7f45524332303a207472616e7366657220746f20746865207a65726f206164647260008201527f6573730000000000000000000000000000000000000000000000000000000000602082015250565b6000612266602383611a6b565b91506122718261220a565b604082019050919050565b6000602082019050818103600083015261229581612259565b9050919050565b7f45524332303a207472616e7366657220616d6f756e742065786365656473206260008201527f616c616e63650000000000000000000000000000000000000000000000000000602082015250565b60006122f8602683611a6b565b91506123038261229c565b604082019050919050565b60006020820190508181036000830152612327816122eb565b9050919050565b61233781611b32565b82525050565b6000602082019050612352600083018461232e565b92915050565b7f5061757361626c653a2070617573656400000000000000000000000000000000600082015250565b600061238e601083611a6b565b915061239982612358565b602082019050919050565b600060208201905081810360008301526123bd81612381565b9050919050565b7f45524332303a206d696e7420746f20746865207a65726f206164647265737300600082015250565b60006123fa601f83611a6b565b9150612405826123c4565b602082019050919050565b60006020820190508181036000830152612429816123ed565b9050919050565b7f45524332303a206275726e2066726f6d20746865207a65726f2061646472657360008201527f7300000000000000000000000000000000000000000000000000000000000000602082015250565b600061248c602183611a6b565b915061249782612430565b604082019050919050565b600060208201905081810360008301526124bb8161247f565b9050919050565b7f45524332303a206275726e20616d6f756e7420657863656564732062616c616e60008201527f6365000000000000000000000000000000000000000000000000000000000000602082015250565b600061251e602283611a6b565b9150612529826124c2565b604082019050919050565b6000602082019050818103600083015261254d81612511565b9050919050565b7f546f6b656e207472616e73666572732070617573656400000000000000000000600082015250565b600061258a601683611a6b565b915061259582612554565b602082019050919050565b600060208201905081810360008301526125b98161257d565b9050919050565b600081905092915050565b7f416363657373436f6e74726f6c3a206163636f756e7420000000000000000000600082015250565b60006126016017836125c0565b915061260c826125cb565b601782019050919050565b600061262282611a60565b61262c81856125c0565b935061263c818560208601611a7c565b80840191505092915050565b7f206973206d697373696e6720726f6c6520000000000000000000000000000000600082015250565b600061267e6011836125c0565b915061268982612648565b601182019050919050565b600061269f826125f4565b91506126ab8285612617565b91506126b682612671565b91506126c28284612617565b91508190509392505050565b7f5061757361626c653a206e6f7420706175736564000000000000000000000000600082015250565b6000612704601483611a6b565b915061270f826126ce565b602082019050919050565b60006020820190508181036000830152612733816126f7565b9050919050565b600061274582611b70565b915061275083611b70565b925082820261275e81611b70565b9150828204841483151761277557612774611ef3565b5b5092915050565b7f4e487b7100000000000000000000000000000000000000000000000000000000600052604160045260246000fd5b7f4e487b7100000000000000000000000000000000000000000000000000000000600052603260045260246000fd5b60006127e582611b70565b9150600082036127f8576127f7611ef3565b5b600182039050919050565b7f537472696e67733a20686578206c656e67746820696e73756666696369656e74600082015250565b6000612839602083611a6b565b915061284482612803565b602082019050919050565b600060208201905081810360008301526128688161282c565b905091905056fea2646970667358221220c7bdc31aae1015cf240682d8ca5225da6eb01adf385dd9d32a3adec0fbc464e064736f6c63430008150033",
  "linkReferences": {},
  "deployedLinkReferences": {}
}